:020000040800F2
:10000000E8EB0020D5030008F9AB00086D86000876
:10001000F5AB0008E13100086908010800000000A4
:1000200000000000000000000000000015030008B0
:100030008F3C00080000000071030008B9DF0008D1
:10004000EF030008EF030008EF030008EF030008C8
:10005000EF030008EF030008913C0008EF030008DD
:10006000EF0300089B3C0008A53C0008793200081B
:10007000EF03000889320008EF030008EF030008CF
:10008000EF030008EF030008EF030008EF03000888
:10009000EF030008EF030008EF030008AF3C00087F
:1000A000EF030008EF030008EF030008EF03000868
:1000B000EF030008EF030008EF0300088186000843
:1000C00071860008C1860008B1860008EF030008A9
:1000D000EF030008EF030008EF030008F5E4000851
:1000E000EF030008EF030008EF030008EF03000828
:1000F000EF030008EF030008EF030008993200083F
:10010000EF030008EF030008EF030008EF03000807
:10011000EF030008EF030008EF030008EF030008F7
:10012000EF0300081533000825330008EF0300082B
:10013000EF030008EF030008EF030008EF030008D7
:10014000EF030008EF030008EF03000811B00008F8
:10015000EF030008BD3B0008CD3B000825E6000882
:100160006188000851880008EF030008EF030008C9
:10017000EF030008EF030008EF0300080000000091
:10018000EF030008EF03000800F002F800F0B2F8F7
:100190000AA090E8000C82448344AAF10107DA45E2
:1001A00001D100F0A7F8AFF2090EBAE80F0013F082
:1001B000010F18BFFB1A43F001031847BCC401002C
:1001C000DCC401000A444FF0000C10F8013B13F0AE
:1001D000070408BF10F8014B1D1108BF10F8015BA0
:1001E000641E05D010F8016B641E01F8016BF9D193
:1001F00013F0080F1EBF10F8014BAD1C0C1B09D1EA
:100200006D1E58BF01F801CBFAD505E014F8016B5B
:1002100001F8016B6D1EF9D59142D6D370470000ED
:100220000023002400250026103A28BF78C1FBD8FF
:10023000520728BF30C148BF0B6070476E2900F0DD
:100240009984702900F0DB85662919F08D81652974
:1002500019F08A81672919F08781612919F086814F
:1002600003681B0A28BF41F08001692900F0D28190
:10027000642900F0CF81752900F0CC816F2900F04E
:100280006885782900F0A785E92900F00385E4292D
:1002900000F00085F52900F0FD84EF2900F0658568
:1002A000F82900F0A6850368DB0928BF41F080012A
:1002B000632901F0AB81732901F0B081E32901F0DA
:1002C000BB81F32901F0C081002070471FB519F0F0
:1002D00093F801F00BFA04000020002117F09EFDB6
:1002E000401C60600020002117F082FDE0601FBD0F
:1002F00010B510BD01F0CDF91146FFF7E7FF14F07E
:10030000A0FF01F0A5FA03B4FFF7F2FF03BC01F070
:10031000B5FA00002C4B19680868B0E8F04F80F37C
:100320000988BFF36F8F4FF0000080F3118870478A
:100330000000000008480068006880F308884FF05B
:10034000000080F3148862B661B6BFF34F8FBFF32D
:100350006F8F00DF00BF00BF08ED00E0DFF80C008A
:10036000016841F470010160704700BF88ED00E052
:10037000EFF30980BFF36F8F134B1A681EF0100F55
:1003800008BF20ED108A20E9F04F106009B44FF04B
:10039000500080F31188BFF34F8FBFF36F8F16F0BB
:1003A0001FFF4FF0000080F3118809BC196808682E
:1003B000B0E8F04F1EF0100F08BFB0EC108A80F3C9
:1003C0000988BFF36F8F7047BC040020EFF30580EE
:1003D000704700000948804709480047FEE7FEE7EC
:1003E000FEE7FEE7FEE7FEE7FEE7FEE7FEE7FEE7E5
:1003F00004480549054A064B7047000081E00008A3
:1004000089010008E8AB0020E8EB0020E8CB0020E1
:10041000E8CB00209FED1A1AF5EE000A40EE010A23
:10042000BDEEE00AF5EEC00A10EE100AF1EE10FA89
:1004300038BF401E00EE100A1349F7EE001AB8EE5E
:10044000C00A30EEC00ADFED0F0A20EE200AFCEEF3
:10045000C00A10EE900AC0F3080000EE900A01EB0B
:100460008000F8EE600A90ED011A70EE600A90EDDF
:10047000000A71EEE01A21EE800A00EE810A704750
:1004800083F9223E0000004478BB0108DFED190A21
:10049000B5EEC00A60EE200ABDEEE01A11EE100AB9
:1004A000F1EE10FA38BF401E00EE100A1349F7EEC5
:1004B000001AB8EEC00A30EEC00ADFED0F0A60EE97
:1004C000200ABCEEE00A10EE100AC0F3080000EEAD
:1004D000100A01EB8000B8EE400A90ED011A70EEB0
:1004E000C00A90ED000A71EEE01A21EE800A00EEDB
:1004F000810A704783F9223E0000004478BB01085E
:1005000053EA020C00F069802DE9F04B4FF0000631
:10051000002B1FBFB3FA83F503FA05F424FA05F69E
:100520005E4012BF1643B2FA82F502FA05F4C5F135
:1005300020051EBF22FA05FC44EA0C04203556EAC9
:10054000044C4FEA144418BF641C4FF000084FF0ED
:100550000009904271EB030C39D3002919BFB1FA9D
:1005600081F701FA07F6B0FA80F700FA07F6C7F14B
:1005700020071EBF20FA07FC46EA0C062037B6FB10
:10058000F4FCA7EB0507103F07F01F0BCBF120068B
:100590000CFA0BFB2CFA06F644BFB3460026202FBC
:1005A000A4BF5E464FF0000B5BEA060C08BF4FF09D
:1005B000010B19EB0B09ABFB027C48EB0608C01BD7
:1005C00006FB02CC0BFB03CC71EB0C01C1E70B4625
:1005D000024641464846BDE8F08B13B54FF0000097
:1005E0004FF00001AFF30080BDE81C4070470000F1
:1005F0001CB50C46064B7B4469460090204600F033
:10060000D2FA04460020694600F0E0FA20461CBDFC
:10061000D30500002DE9F041064600241068752935
:10062000314616A510D000F011FA002802DA404237
:1006300013A507E031688A0701D512A502E0490732
:1006400004D511A5012401E000F009FA00210A22D5
:1006500006F1240709E0B0FBF2FCB0FBF2F302FB69
:100660001C00303078541846491C0028F3D123462A
:100670002A463046BDE8F04100F023BA00000000F1
:100680002D0000002B000000200000002DE9F05F8D
:10069000894604464FF0000ADFF874B1FB44C0F805
:1006A00020A02046E1688847002874D0252806D07D
:1006B000D4E901219047206A401C2062F1E700261E
:1006C0005F462046E16888472028054607DB312D34
:1006D00005D2781910F8200C08B10643F1E7B007ED
:1006E00001D526F00406C4F81CA00027C4F818A001
:1006F0002A2D09D0284611F082F838B304EB870878
:10070000303DC8F8185019E059F8041B204604EB96
:1007100087029161E1688847012F054618D1E06999
:10072000002820DA26F020061DE0D8F8180000EB9B
:10073000800005EB40003038C8F818002046E1681A
:100740008847054611F05BF80028EED1012F0AD04A
:100750002E2D08D12046E16888477F1C0546022FD0
:1007600046F02006C4DBA069002803DA404246F0C8
:100770000106A061F00701D026F010066C2D0BD009
:10078000682D09D04C2D39D06A2D35D0742D35D037
:100790007A2D33D016E038E0E1682F4620468847AE
:1007A000B842054609D16C2F26D04FF48060E1682D
:1007B000064320468847054604E06C2F1AD04FF4C4
:1007C000807006430DB3A5F14100192802D82035E9
:1007D00046F400664A462946204626604E46FFF704
:1007E0002DFD80B101280BD0F61D26F0070000F189
:1007F000080956E74020E4E78020D8E70020D6E744
:1008000006F104094DE7284652E7206ABDE8F09F4B
:10081000DCBC010010B5431C02E010F8011B71B1F3
:100820008107FAD14FF0013202C88C1A8C4314EAC6
:10083000C211F9D0C01A0A0603D0C01E10BDC01ADA
:1008400010BD0A0401D0801E10BD0902FCD0401E5C
:1008500010BD032A40F2308010F0030C00F0158028
:1008600011F8013BBCF1020F624498BF11F801CBB3
:1008700000F8013B38BF11F8013BA2F1040298BF18
:1008800000F801CB38BF00F8013B11F0030300F082
:100890002580083AC0F0088051F8043B083A51F826
:1008A00004CBA0E80810F5E7121D5CBF51F8043B2B
:1008B00040F8043BAFF30080D20724BF11F8013B9E
:1008C00011F801CB48BF11F8012B24BF00F8013B00
:1008D00000F801CB48BF00F8012B704710B5203A53
:1008E000C0F00B80B1E81850203AA0E81850B1E8E9
:1008F0001850A0E81850BFF4F5AF5FEA027C24BF9F
:10090000B1E81850A0E8185044BF18C918C0BDE895
:1009100010405FEA827C24BF51F8043B40F8043B5E
:1009200008BF7047D20728BF31F8023B48BF11F813
:10093000012B28BF20F8023B48BF00F8012B70476D
:1009400002F0FF0343EA032242EA024200F002B847
:100950004FF000020429C0F0128010F0030C00F0E8
:100960001B80CCF1040CBCF1020F18BF00F8012B66
:10097000A8BF20F8022BA1EB0C0100F00DB85FEA34
:10098000C17C24BF00F8012B00F8012B48BF00F800
:10099000012B70474FF0000200B51346944696466F
:1009A000203922BFA0E80C50A0E80C50B1F1200182
:1009B000BFF4F7AF090728BFA0E80C5048BF0CC030
:1009C0005DF804EB890028BF40F8042B08BF70478E
:1009D00048BF20F8022B11F0804F18BF00F8012B00
:1009E000704770477047704710B500F017FA0068FD
:1009F00010BD10B5044600F011FA046010BD70B5CA
:100A0000044685690068C10601D5302600E020262D
:100A1000C00707D070BDD4E9012130469047206A55
:100A2000401C20626D1EF6D570BD70B50446856908
:100A30000078C00707D170BDD4E90121202090477C
:100A4000206A401C20626D1EF6D570BD09684A05FB
:100A500001D540B27047C905FCD500B2704709689E
:100A60004A0501D5C0B27047C905FCD580B27047B0
:100A700070B50C460546012A05D02878800600D5B9
:100A8000EA69002302E0012305E05B1C934202D2E5
:100A9000E05C0028F9D1A869E618C01AA861286AA4
:100AA000184428622846FFF7AAFF04E0D5E901218F
:100AB00014F8010B9047B442F8D32846FFF7B5FF6E
:100AC00070BD2DE9F0470D4699469246044600F167
:100AD00024080168880604D5E06921F0100121602E
:100AE00000E00120A84201DD471B00E00027A169CA
:100AF0007A1902EB0900081AA0612078C00602D416
:100B00002046FFF77CFF002608E0D4E901211AF80F
:100B100006009047206A401C761C20624E45F4DB9C
:100B20002078C0060AD52046FFF769FF06E0D4E921
:100B3000012130209047206A401C2062381EA7F116
:100B40000107F4DC07E0D4E9012118F8050090471B
:100B5000206A401C2062281EA5F10105F3DC204616
:100B6000FFF763FF2078000602D50220BDE8F0877A
:100B70000120FBE711680268006A530501D508707F
:100B80000AE0D30501D5088006E0130603D5C21795
:100B9000C1E9000200E008600120704701694A1CB9
:100BA00002610878704700B58FB0CDE901310021AE
:100BB000059105497944CDE9031011466846FFF7D0
:100BC00065FD0FB000BD0000E5FFFFFF0A6802F8F9
:100BD000010B0A60704700002DE9FF5F15468A4649
:100BE0000446DFF8AC80F8440027D8E900103E4600
:100BF000CDE9001010E03AF816106A4602A800F09D
:100C000027FD411C07D02178890603D5E2693918F0
:100C100091420DD80744761C2078800602D5E06901
:100C2000B84205DDAE42E6DB3AF816000028E2D114
:100C3000A069C01BA0612046FFF7E1FED8E90010C3
:100C4000CDE90010002017E03AF818106A4602A813
:100C500000F0FEFCB0F1FF3F81460BD000250DF106
:100C6000080B05E0D4E901211BF8050090476D1C35
:100C70004D45F7D308F10100B0428046E4DB206A1D
:100C8000384420622046FFF7D0FEBDE8FF9F0000F9
:100C900036B901002DE9F0418046D21D22F007024D
:100CA0000025D2E90002F52915A614D0011E72F123
:100CB000000106DA0023D0EB030063EB020211A669
:100CC00008E0D8F800108B0701D50FA602E049070D
:100CD00001D50EA601251146002408F1240704E0E1
:100CE00000F0A0F830323A55641C50EA0102F7D106
:100CF0002B46324621464046BDE8F041FFF7E1BEB3
:100D0000000000002D0000002B000000200000006B
:100D100030B4002100F1240408E002F00705D208F5
:100D2000303542EA4372DB086554491C52EA030538
:100D3000F3D10468002310A2250707D5A40600D428
:100D400021B1C46901230DA2641EC46130BCFFF748
:100D5000B8BE10B5044621461068FFF780FE024673
:100D60002046BDE810400023D2E7D21D22F0070143
:100D7000D1E90023CCE700000000000030000000B3
:100D8000F0B40D460188090502D5214C7C4402E0EF
:100D90001F4C7C440E34002100F1240608E002F0D0
:100DA0000F071209E75D42EA03721B097754491CD9
:100DB00052EA0307F3D102780023120704D5702DFD
:100DC00006D009B1022311342246F0BCFFF779BEE8
:100DD00001231034F8E770B504460D46214610682B
:100DE000FFF73DFE024629462046BDE8704000233D
:100DF000C6E7D21D22F00703D3E90023C0E703684A
:100E0000126843F0200303600823C3610023B7E79F
:100E100098B701000048704788AB00200048704731
:100E200088AB002030B5B0F10A024FEA900E71F1A4
:100E300000034EEA817EB0EB0E0061EB91014FEAB8
:100E4000101E4EEA017E10EB0E0041EB11114FEA2D
:100E5000102E4EEA016E10EB0E0041EB11214FEA0D
:100E6000104E4EEA014E10EB0E0041EB11414018BE
:100E700041F100014FEAD00040EA41704FEAD10150
:100E800010EB80054FEA810444EA907444EB0104BE
:100E90006D1944EB0404521BA3414FF0000348BFFB
:100EA0000A3200D530BD401C41F1000130BD0000C8
:100EB0001FB584B000200A9C06AB04AA02A90094C6
:100EC000AFF3008018B1DDE9020108B010BD03489E
:100ED000204000F0CBFC00200146F6E70000207C1B
:100EE00070472DE9FF4F0C461E464FF0FF378BB081
:100EF000D2E90001DDF860800A908A46C1F30A5504
:100F000005B93D460021084618F01EFBBAF1000F56
:100F100000F4400005DA00EB80004FF4400101EAE4
:100F200050004FEA9059B9F1010F00DDB9460A9817
:100F300050EA4A000ED044F61050A5F2FF35454362
:100F40002F14B8F1000F1ED07542291E1EDDC9F105
:100F500000021CE0B8F1010F4FF0000001D0302179
:100F600003E0F24305E02154401CB042FBDB304675
:100F70000022002121540B99C1F80880C1E900200A
:100F80000FB0BDE8F08FBD1B6D1CDEE74A4600DAEE
:100F9000694206A800F0EEFB06AB93E8070003AB3E
:100FA00083E8070050460A9900F025FD8DE8070008
:100FB000A0F500501F3800900398002D09DD42F283
:100FC0001F014A46084403A90390684600F084FFC5
:100FD00008E0A0F500504A461F3803A90390684670
:100FE00000F08EFF8DE807000004000C03D04FF0E6
:100FF000FF30410800E01046B8F1000F03D0002296
:10100000009215461EE0751E05D4FFF70BFF303227
:1010100062556D1EF9D5B3460122084302D0002265
:101020007F1C04E02078302801D100227F1E002A96
:10103000099786D01DE0112D07DAFFF7F3FE303255
:1010400062556D1C50EA0102F5D1084302D00098A8
:10105000C8B10EE00021681E05E0235C625C6354A9
:101060002254401E491C8142F7DBAB46A81B401EA0
:101070000990002004F80B000B98099AC0F808802A
:10108000C0E9002B7CE711264FF0000859E72DE955
:10109000F04F88460446D21D22F0070191B0D1E9F5
:1010A0000001CDE90A010FF001FC02460B98C00FC8
:1010B00001D02D2007E02068810701D52B2002E018
:1010C000202101EAC000032A099001D0072A05DB8C
:1010D00003464146204600F00DFB0BE120788006D8
:1010E00001D5E06900E00620B8F1650F814606D021
:1010F000B8F1660F18D0B8F1670F70D131E0002059
:10110000B9F1110F009001DB112301E009F1010396
:101110000AAA01A90CA8FFF7E4FEDDE90C7000267D
:1011200009F10105834647E001204B4600904FF04E
:1011300000470AAA01A90CA8FFF7D3FEDDE90DB00C
:101140000C995D46002610B909F101000D18B9EBA4
:10115000050003D4C0F1FF3609F10105A5EB090034
:101160002BE0B9F1010F01DA4FF001090020B9F1CC
:10117000110F0090484601DD112300E003460AAA42
:1011800001A90CA8FFF7ADFEDDE90C704D46002665
:101190008346207800070AD4AB4500DA5D4601A8F3
:1011A000012D04DD411911F8011C302907D04F45EC
:1011B00002DA17F1040F04DA012082460FE06D1EF7
:1011C000EEE7002F02DCED1B3E4403E0781CA84252
:1011D00000DD7D1CB81B00F1010A4FF000472078AC
:1011E000000703D4AA4501DB4FF0FF3A0021B7F115
:1011F000004F0DF143088DF8431024D002202B231B
:10120000002F01DA7F422D230A21021EA0F10100E6
:1012100000DC5FB197FBF1FC97FBF1F201FB1C7C5A
:1012200017460CF1300C08F801CDEEE7A8F10100EB
:1012300003702188090501D5452100E06521A0F151
:10124000010800F8011C09980FA9A1EB0807FF1D70
:1012500000B10120411901EBEA70A1693844081A74
:10126000401EA0612078C00602D42046FFF7C7FBCD
:10127000099828B1D4E901219047206A401C2062D6
:101280002078C00622D52046FFF7B9FB1EE0002ECD
:1012900004DBB34502DD01A8805D00E03020D4E925
:1012A00001219047206A401C2062761CAAF10100AF
:1012B0005FEA000A0AD100F019FAC0680168405CD0
:1012C000D4E901219047206A401C2062281EA5F124
:1012D0000105DCDC07E0D4E9012118F8010B904797
:1012E000206A401C2062381EA7F10107F3DC20466B
:1012F000FFF79BFB032011B043E600002DE9F04F00
:1013000004460D46D21D22F0070089B0D0E90097AF
:10131000484639460FF0CAFA0246F80F01D02D238D
:1013200007E02068810701D52B2302E0202101EA94
:10133000C0038DF820300BB1012000E00020032A0B
:10134000824601D0072A04DB2946204600F0D2F964
:101350003FE12078800601D40D2500E0E569C7F360
:101360000A560D2D49DA00214FEA175B084618F09E
:10137000EBF8002F00F4400007DA00EB80004FF498
:10138000400100EBD07001EA60008115012901DD08
:101390004FF0FF3100224FEA850CBCF1180F06D345
:1013A0001346ACF118004FF08052C24003E04FF4F6
:1013B000801323FA0CF30CF10C0CBCF1200F04D3B6
:1013C000ACF1200C09FA0CF001E007FA0CF000294E
:1013D0004FF0004801DD18B90FE00ED140450CD3A5
:1013E00019EB02095F4121B9404502D19F4329EA27
:1013F0000209BBEB175F00D0761C2088000502D5E0
:101400007B48784402E07A487844193808AA3023A7
:1014100002F80A30037C0AF10101002E0AF1020AE7
:1014200053546A4602DC4FF0300101E04FF03101C5
:101430004FF001088DF8001002D0A6F2FF3603E04D
:1014400059EA470100D06B4E002D02DC21780907D4
:1014500004D54FF002082E218DF80110C44600215A
:101460000BE0C7F303433F01C35C491C6D1E02F848
:101470000830052908F1010801DA002DF1DC00210E
:101480000CE000EB1973491C1B786D1E082902F84B
:1014900008304FEA091908F1010801DA002DF0DCE3
:1014A00021688B0602D516E0A8F10108E04505DDAC
:1014B00002EB080313F8013C302BF5D0B8F1000F14
:1014C00009DD02EB080313F8013C2E2B03D10907B9
:1014D00001D4A8F10108002D05DD3E2102F8081015
:1014E0006D1E08F10108407C002E02F8080008F18A
:1014F000010804DA2D20764202F8080002E02B20D1
:1015000002F808000A214FF47A70864208F10108B7
:101510000BDB96FBF0F3303302F8083096FBF0F368
:1015200008F1010800FB136601E0642E0CDB642067
:1015300096FBF0F3303302F8083096FBF0F308F135
:10154000010800FB136601E00A2E06DB96FBF1F0B2
:10155000303002F8080008F1010896FBF1F001FBB9
:101560001060303002F80800A16908F1010808EBAA
:10157000050202EB0A00081AA0612078C00602D416
:101580002046FFF73CFA216A08AE01EB0A00206210
:1015900004E0D4E9012116F8010B9047BAF1010AE1
:1015A000F7D22078C00602D52046FFF728FA6E460B
:1015B00009E016F8010B3E280FD0D4E9012190472D
:1015C000206A401C2062B8F10108F2D22046FFF7E1
:1015D0002CFA09B00320BDE8F08F206A284420626D
:1015E00003E0D4E90121302090476D1EEBD3F8E7EA
:1015F0005DB1010002FCFFFF10B5436913B1AFF309
:10160000008001E0FFF734FA012010BD127800F1EC
:1016100024010A7000224A700122EDE711684FF0A0
:10162000FF32E9E710B5436913B1AFF3008001E081
:10163000FFF7D2FA012010BD128800F12401828444
:101640000022C2840122EDE711684FF0FF32E9E782
:1016500070B516460C46054600F040F8036893F84E
:101660000101012806D0FF2C0FD8185D68B10120B8
:101670002C7070BDD3F807013246214603F20713E0
:1016800003442846BDE8704018474FF0FF3070BD56
:1016900070477546FFF7BEFBAE46050069465346E8
:1016A00020F00700854618B020B5FEF7A1FEBDE882
:1016B00020404FF000064FF000074FF000084FF0B9
:1016C000000B21F00701AC46ACE8C009ACE8C0094A
:1016D000ACE8C009ACE8C0098D46704710B500F011
:1016E00005F8001D10BD00BF3567010000487047B8
:1016F000A8AB00202DE9F0411F46044603260168EF
:10170000072A01F4006004DB08B116A505E016A560
:1017100003E008B115A500E015A521F01000206038
:10172000A069C01EA0610FB1401EA0612046FFF756
:1017300066F94FB1D4E9012138469047206A401C30
:101740002062C01C206206E0206AFAE7D4E9012189
:1017500015F8010B9047761EF8D22046FFF765F981
:10176000BDE8F0814E414E006E616E00494E46006C
:10177000696E66002DE9F047814616468AB0334807
:1017800078440DC88DE80D0030487844801C03ACC7
:101790000DC884E80D0041F69B300844372190FBCA
:1017A000F1F290FBF1F5A5F1800501FB12041B3C61
:1017B00002D56442012000E00020DFF890A08046BE
:1017C0000027FA44AAF1BE0A0DE0E00709D032462C
:1017D000684607EB47010AEB810100F091FB8DE8B9
:1017E000070064107F1C002CEFD1184F7F44AC3FE2
:1017F00018E0E80714D007EB04100DF1180A90E880
:101800000E008AE80E00C068F04201D198190890D5
:10181000324606A903A800F073FB03AB83E8070078
:101820006D10641C002DE4D132466946B8F1000FFA
:1018300003A802D000F050FB01E000F061FBC9E911
:101840000001C9F808200AB0BDE8F08770AE0100B9
:1018500010B50446AFF300802046BDE81040FEF707
:1018600052BD002801D000F009B8704710B500F053
:1018700025F8BDE81040FFF7F4BF0000014918202B
:10188000ABBEFEE72600020070B505460C460A20F6
:1018900000E06D1C00F0A8F835B128780028F8D1D8
:1018A00002E0641C00F0A0F814B120780028F8D100
:1018B000BDE870400A2000F097B8000010B502287B
:1018C00003D0410103D50DA112E0002010BD01019C
:1018D00001D50FA10CE0C10001D511A108E08100E4
:1018E00001D512A104E0400001D513A100E00021C0
:1018F00015A0FFF7C9FF012010BD0000496E7661F9
:101900006C6964204F7065726174696F6E000000CD
:10191000446976696465204279205A65726F0000D7
:101920004F766572666C6F7700000000556E6465D7
:1019300072666C6F77000000496E65786163742091
:10194000526573756C7400005349474650453A2000
:1019500041726974686D6574696320657863657048
:1019600074696F6E3A2000004FF0013C50F8042B70
:1019700051F8043B9A4221D1A2EB0C03934313EAA2
:10198000CC1317D150F8042B51F8043B9A4215D1CF
:10199000A2EB0C03934313EACC130BD150F8042BA6
:1019A00051F8043B9A4209D1A2EB0C03934313EA8A
:1019B000CC13DBD04FF00000704700BFD01A01BA43
:1019C000B1FA81F101F0180122FA01F0CB40C1F126
:1019D0002001DBB2C0B2C01A2CFA01F3D11A914334
:1019E00011EAC311E6D1704708B569468DF80000C9
:1019F0000320ABBE08BD5FEA400C08BF91F0000FAA
:101A00004FEA8C234FEAC12243EA51514FEA1C505E
:101A100018BF00F5F0404FEA300018BF41F0004118
:101A20005FEA6C5C00F02980BCF1FF3F08BF40F02A
:101A300080407047130C06BF12044FF0100C4FF09B
:101A4000000C130E04BF12020CF1080C130F04BF9C
:101A500012010CF1040C930F04BF92000CF1020C64
:101A6000D30F04BF52000CF1010C11464FF00002DD
:101A7000A0F11F00A0EB0C00704711F0004F08BF51
:101A8000704731F000413FF4D5AF0B0C06BF09049D
:101A90004FF0100C4FF0000C0B0E04BF09020CF1BC
:101AA000080C0B0F04BF09010CF1040C8B0F04BFD1
:101AB00089000CF1020CCB0F04BF49000CF1010CA2
:101AC000CCF12003A0EB0C0022FA03F302FA0CF293
:101AD00041EA030100F10100704720F07F4C80EAE9
:101AE000030023F07F47ACEB070303F57C5300F0C2
:101AF000004003F1FF032DE980494FEA154B09B47B
:101B00004FEA144325EA0B4E24EA03480FF2042659
:101B100006EB132749083E785FEA320203FB0667AB
:101B2000C7F5000707FB06F64FEA54374FEAD646DB
:101B300006F1020607FB066CCCF1005C4FEA1C477D
:101B40002CEA074C07FB06F40CFB06F504EB1546E4
:101B50004FEA961634BF00204FF000404FEAD137CD
:101B600006FB07FC4FEA1C4C0CFB0BF7D21B03FBDC
:101B70000CF761EB07010CFB0EF7B0EB074072EBC3
:101B800017420CFB08F734BFA2EB0742B2EB074247
:101B900061EB17414FEA0C444FEA910706FB07FC43
:101BA0004FEA1C4C0CFB0BF7B0EBC74072EB573203
:101BB00003FB0CF734BFA2EBC742B2EBC74261EBA9
:101BC00057310CFB0EF7B0EBC70072EB57720CFBF2
:101BD00008F734BFA2EBC702B2EBC70261EB577143
:101BE000039F4FEA816141EA921104EBCC044FEA72
:101BF000D1374FEA826206FB07FC42EA90124FEAB5
:101C000080604FEA1C4C0CFB0BF7D21B03FB0CF75C
:101C100061EB07010CFB0EF7B0EB074072EB1742CC
:101C20000CFB08F734BFA2EB0742B2EB074261EBB3
:101C300017414FEA8C554FEA910704EB9C2406FBB1
:101C400007FC4FEA1C4C0CFB0BF7B0EBC74072EBE8
:101C5000573203FB0CF734BFA2EBC742B2EBC742CB
:101C600061EB57310CFB0EF7B0EBC70072EB57720C
:101C70000CFB08F734BFA2EBC702B2EBC70261EB63
:101C8000577115EB4C254FEA816141EA92114FEAF9
:101C900082624FEAD13742EA901206FB07FC44F118
:101CA00000044FEA80604FEA1C4C0CFB0BF7D21B80
:101CB00003FB0CF761EB07010CFB0EF7B0EB0740E1
:101CC00072EB17420CFB08F734BFA2EB0742B2EBF2
:101CD000074261EB174115EB1C154FEA813141EAD0
:101CE00092414FEA823242EA90424FEA80304FEA14
:101CF0000C7644F1000448EA03434EEA0B484FF0E7
:101D0000000EB2EB080C71EB030724BF62463946A4
:101D10004EEB0E0E4FF0000B0018524149414BEBB9
:101D20000B0BB2EB080C71EB03077BF1000B24BF2C
:101D3000624639464EEB0E0E4FF0000B0018524132
:101D400049414BEB0B0BB2EB080C71EB03077BF13A
:101D5000000B24BF624639464EEB0E0E51EA0207D5
:101D600018BF46F0010616EB0E7655F1000254F14D
:101D7000000103D5BDE88901BDE80088BDE88901FF
:101D8000BDE80048B619524141EB0101A3F101033E
:101D9000704780807F7E7D7C7B7A797877767675D8
:101DA0007473727171706F6E6E6D6C6C6B6A6A6950
:101DB0006868676666656464636362616160605FEA
:101DC0005F5E5E5D5D5C5C5B5B5A5A595958585763
:101DD00057565655555554545353525252515150CB
:101DE00050504F4F4F4E4E4D4D4D4C4C4C4B4B4B1E
:101DF0004A4A4A4949494848484747474746464664
:101E0000454545444444444343434342424242419E
:101E10004141002B26D4770021D01CB54FEA37076B
:101E200003B44FF010004FF0100117F08DFB0FBC02
:101E3000BDE810400BF1010BBBF1010F08BF5FEAD9
:101E4000170722BF12F1010211F101014FF0004109
:101E500043F1000300F0004043EA00007047F9D36B
:101E60005708DAE746EA064613F1400F4FEA1646EE
:101E70001FDD13F1200FDFBF16430A460021203378
:101E80005B42C8D0C3F1200746EA064602FA07F7CC
:101E90004FEA164646EA0706C3F1200722FA03F284
:101EA00001FA07F721FA03F14FF0000342EA0702B3
:101EB000B1E746EA020646EA06464FEA164646EA11
:101EC0000106BCBF46EA0646360C4FF000034FF051
:101ED00000024FF000019EE72DE9C048934630B460
:101EE00091E8380007C831EA400C48BF34EA430C97
:101EF00003D5FFF7F2FDFFF78CFFF0BCBDE80088CB
:101F00002DE9C048934630B491E8380007C810F076
:101F1000804F08BF13F0804F03D100F005F8FFF7A2
:101F200078FFF0BCBDE8008820F07F4780EA03001E
:101F300023F07F4C07EB0C03A3F57C5300F000402B
:101F4000A3F1FE0392F0000F00F0B38095F0000FB4
:101F500000F077802DE901494FEA11404FEA14461D
:101F600021EA004800FB06FC24EA064708FB06F6C7
:101F700007FB08F800FB07F718EB06484CEB164C7C
:101F80004FEA124B18EB07484FEA15464CEB174047
:101F900022EA0B4E0BFB06FC25EA06470EFB06F673
:101FA00007FB0EFE0BFB07F71EEB064E4CEB164C29
:101FB0004FF000061EEB074E4CEB174B18EB0B08CF
:101FC00040F1000018EB0E0B58EB000840F1000048
:101FD0008F1A4FF000013CBFC943661B14BFB5EB1D
:101FE000040C00213CBFC943F61B4FEA17444EEADC
:101FF0008E0E27EA04454FEA1C4704FB07622CEAD1
:10200000074C05FB07F70CFB05F604FB0CFC16EB75
:10201000074642EB174216EB0C4642EB1C421BEB09
:10202000060658EB0202414146EA9E0601D5BDE88C
:102030000189B619524141EB0101A3F10103BDE849
:1020400001894FEA14454FEA114724EA054621EA7F
:10205000074C05FB07F406FB07F70CFB06F105FB35
:102060000CFC11EB074144EB17444FEA124711EB0C
:102070000C4144EB1C4422EA074C05FB07F206FB2B
:1020800007F70CFB06F605FB0CFC16EB074642EBCC
:10209000174216EB0C4642EB1C456A1854F100013E
:1020A00048BF7047B619524141EB0101A3F101034A
:1020B000704795F0000F37D04FEA11424FEA1447AE
:1020C00021EA024624EA074C02FB07F106FB07F768
:1020D0000CFB06F402FB0CFC14EB074441EB17412C
:1020E0004FEA154714EB0C4441EB1C4125EA074C21
:1020F00002FB07F506FB07F70CFB06F602FB0CFCE0
:1021000016EB074645EB174516EB0C4645EB1C4214
:10211000121951F1000148BF7047B619524141EB05
:102120000101A3F1010370474FEA14454FEA11473B
:1021300024EA054621EA074C05FB07F106FB07F7F1
:102140000CFB06F24FF0000605FB0CFC12EB0742FD
:1021500041EB174112EB0C4251EB1C4148BF704759
:10216000921841EB0101A3F1010370474A494A6803
:1021700022F440324A604A6843681A434A60016860
:102180004A6822F480724A6001684A68036942EA38
:1021900003224A6001684A6822F040724A6001687E
:1021A0004A6883681A434A6001688A6822F40062B8
:1021B0008A6001688A68C3681A438A60816A6FF01E
:1021C0007062D14214D001688A6822F070628A601D
:1021D00001688A68836A1A438A6001688A6822F003
:1021E00040528A6001688A68C36A1A438A6009E0BB
:1021F00001688A6822F070628A6001688A6822F049
:1022000040528A6001688A6822F002028A6001688E
:102210008A68037E42EA43028A6090F8201089B1FE
:1022200001684A6842F400624A6001684A6822F420
:1022300060424A6001684A68436A5B1E42EA433270
:102240004A6004E001684A6822F400624A6001685A
:10225000CA6A22F47002CA620168CA6A838B5B1E72
:1022600042EA0352CA6201688A6822F400728A60F4
:1022700001688A6890F8303042EA43228A60016837
:102280008A6822F480628A6001688A68406942EA4A
:1022900080208860704700000023014000B52DEDCC
:1022A000108B83B0F0EE409AB0EE60AAF0EE41AA37
:1022B000F0EE618AB0EE428A9FED7D0AF0EE40EAD0
:1022C0009FED7B0AB0EE40EA9FED790A8DED020AA0
:1022D0009FED770AB0EE40FA9FED750AF0EE40FAF6
:1022E0009FED730A8DED010A9FED710A8DED000AD5
:1022F000B2EE040AF4EEC08AF1EE10FA03D8B2EEA0
:10230000040AF0EE408A6B4890ED000ADFED6A0A9D
:1023100020EE200A20EE289A684890ED000A30EE60
:102320004A0AB0EE40EADFED660A0020B0EE4E0A3F
:1023300011F0BAFCF0EE40FADFED610A0120B0EED8
:102340004E0A11F0B1FC8DED010A5E4890ED000AD5
:102350005D48D0ED000A00EECE0A5848D0ED000AE4
:10236000F0EE60CA48EE00CA584890ED000A5548A1
:10237000D0ED000A20EE200A9FED551AC0EE010AAA
:10238000544890ED000A544890ED001A01EE6F0A8F
:1023900009EE2A0A70EE600A4A4890ED000AB0EE93
:1023A00040DA08EE20DA4D4890ED000AF1EE400ADE
:1023B0009DED010A60EE800A464890ED000AF0EEBD
:1023C00040DA48EE20DA3D48C0ED00CA3D4880EDD5
:1023D00000DA4048C0ED00DA4148D0ED000A70EE66
:1023E000E90AB0EE600AF0EE481A9FED3E1A3E4848
:1023F000D0ED000A11F041FDF0EE40EA384890EDD2
:10240000000A3948D0ED000AF0EE40BA48EE20BA92
:1024100090ED000AB0EE40CA08EE2ECA3048C0ED7A
:1024200000BA314880ED00CA2D4890ED000A2348DB
:10243000D0ED000A30EE600A8DED020A2A4890EDD8
:10244000000A2048D0ED000A30EE600AB0EE40FAF3
:10245000B6EE000A2FEE000AF0EE400ADFED231A76
:102460009FED231A9DED020A11F007FDB1EE400A1F
:102470008DED000A154890ED000A1248D0ED000AD3
:1024800020EE200ADFED120A80EE201A114890EDAE
:10249000000A70EE410A9DED000A30EE600A80EEFF
:1024A00009BAB0EE4B0A03B0BDEC108B00BD0000C2
:1024B00000000000A8030020CDCC0C401804002030
:1024C0000AD7A33B1C040020C0030020F003002017
:1024D0008FC2F53C20040020C4030020C803002064
:1024E0002404002000001643280400200AD7A33C3F
:1024F0000024F44800B52DED108B83B0F0EE409A27
:10250000B0EE60AAF0EE41AAF0EE618AB0EE428A27
:102510009FED7D0AF0EE40EA9FED7B0AB0EE40EAC7
:102520009FED790A8DED020A9FED770AB0EE40FA31
:102530009FED750AF0EE40FA9FED730A8DED010AEA
:102540009FED710A8DED000AB2EE040AF4EEC08A26
:10255000F1EE10FA03D8B2EE040AF0EE408A6B48AE
:1025600090ED000AF7EE0C0A20EE200A20EE289AE1
:10257000674890ED000A30EE4A0AB0EE40EADFED1F
:10258000650A0020B0EE4E0A11F08EFBF0EE40FA24
:10259000DFED600A0120B0EE4E0A11F085FB8DEDF3
:1025A000010A5D4890ED000A5C48D0ED000A00EE9B
:1025B000CE0A5748D0ED000AF0EE60CA48EE00CAD5
:1025C000574890ED000A5448D0ED000A20EE200A4A
:1025D0009FED541AC0EE010A534890ED000A53488B
:1025E00090ED001A01EE6F0A09EE2A0A70EE600AF9
:1025F000494890ED000AB0EE40DA08EE20DA4C4887
:1026000090ED000AF1EE400A9DED010A60EE800AAD
:10261000454890ED000AF0EE40DA48EE20DA3C48FA
:10262000C0ED00CA3C4880ED00DA3F48C0ED00DA5A
:102630004048D0ED000A70EEE90AB0EE600AF0EE14
:10264000481A9FED3D1A3D48D0ED000A11F015FCE7
:10265000F0EE40EA374890ED000A3848D0ED000A25
:10266000F0EE40BA48EE20BA90ED000AB0EE40CA53
:1026700008EE2ECA2F48C0ED00BA304880ED00CADF
:102680002C4890ED000A2248D0ED000A30EE600A96
:102690008DED020A294890ED000A1F48D0ED000A8E
:1026A00030EE600AB0EE40FAB6EE000A2FEE000AF5
:1026B000F0EE400ADFED221A9FED221A9DED020A8C
:1026C00011F0DBFBB1EE400A8DED000A144890EDED
:1026D000000A1148D0ED000A20EE200ADFED110AB1
:1026E00080EE201A104890ED000A70EE410A9DED30
:1026F000000A30EE600A80EE09BAB0EE4B0A03B071
:10270000BDEC108B00BD000000000000AC030020F9
:102710002C0400200AD7A33B30040020CC03002067
:10272000F40300208FC2F53C34040020D0030020C5
:10273000D403002038040020000016433C0400208D
:102740009FABAD3C0024F44800B52DED108B83B059
:10275000F0EE408AB0EE609AF0EE419AB0EE618AF7
:102760009FED770AB0EE40EA9FED750AB0EE40AA01
:102770009FED730A8DED020A9FED710AF0EE40EABB
:102780009FED6F0AB0EE40FA9FED6D0AF0EE40FA51
:102790009FED6B0A8DED010A6A4890ED000ADFEDAE
:1027A0006A0A20EE200AF0EE40AA684890ED000A7E
:1027B00030EE490AB0EE40AADFED650A0020B0EE27
:1027C0004A0A11F071FAB0EE40FADFED610A012019
:1027D000B0EE4A0A11F068FAF0EE40FA5D4890ED6A
:1027E000000A5D48D0ED000A00EECA0A5748D0ED55
:1027F000000A48EE000AF0EE60CA584890ED000A60
:102800005448D0ED000A20EE200A9FED551AC0EE84
:10281000010A544890ED000A534890ED001A01EE69
:102820004F0A0AEEA90A70EE600A4A4890ED000AC3
:1028300008EE200AB0EE40DA4C4890ED000AB1EE06
:10284000400A60EE2F0A474890ED000A08EE200A81
:10285000F0EE40DA3D48C0ED00CA3E4880ED00DAB7
:102860004048C0ED00DA4248D0ED000A70EEE80AB8
:10287000B0EE600AF0EE481A9FED3E1A3E48D0EDE9
:10288000000A11F0FAFAB0EE40EA394890ED000A79
:102890003948D0ED000A08EE200AF0EE40BA90ED7B
:1028A000000A08EE0E0AB0EE40CA3148C0ED00BA88
:1028B000314880ED00CA2E4890ED000A2348D0ED43
:1028C000000A30EE600A8DED020A2B4890ED000AF6
:1028D0002048D0ED000A30EE600AF0EE40EAB7EE94
:1028E000080A2EEE800AF0EE400ADFED241A9FED72
:1028F000241A9DED020A11F0C0FAB1EE400A8DEDE6
:10290000010A164890ED000A1248D0ED000A20EEA8
:10291000200ADFED130A80EE201A124890ED000A1B
:1029200070EE410A9DED010A30EE600AC0EE2A0AFF
:10293000B0EE60BAB0EE4B0A03B0BDEC108B00BD38
:1029400000000000B00300208FC2B53F400400200B
:102950000AD7A33B44040020D8030020F80300203A
:10296000BC74933C48040020DC030020E0030020FA
:102970004C0400200000E64250040020295C8F3CFB
:102980000024F44810B52DED028BB0EE408AB0EE75
:10299000480A0EF065F9BDEC028B10BD10B52DEDA7
:1029A000028BB0EE408AF0EE608AF0EE680AB0EE7C
:1029B000480A0EF0EBF9BDEC028B10BD10B52DED01
:1029C000028BB0EE408AB0EE480AFDF723FDBDEC65
:1029D000028B10BDF0EE400AF5EEC00AF1EE10FADF
:1029E00002DDB0EE600A7047B1EE600AFBE700005E
:1029F00018B19FED020A80ED000A70470000000048
:102A000018B1B3EE060A80ED000A704770B52DEDDF
:102A10000C8B84B006460C4615469FED990AF0EEE5
:102A2000408A9FED970AB0EE409A9FED950AF0EE2E
:102A300040BA9FED930AF0EE409A9FED910AB0EEF6
:102A400040AA0EB104B11DB904B0BDEC0C8B70BD31
:102A50008C48FFF7CDFF8C48FFF7D2FF8A48D0EDB6
:102A6000000A9FED8A1A60EE810AB0EE600A00F05B
:102A70002DF9F0EE408A28EEA80AF0EE408A82484E
:102A8000D0ED000AB0EE001A60EE810A9FED7F1AC9
:102A900060EE810AB0EE600A00F018F9B0EE409ADC
:102AA00029EE090AB0EE409ADFED790AB7EE000A86
:102AB00000EEA80ADFED770A00EEC90ADFED760A1C
:102AC00020EE200A754880ED000A6E4890ED000A5D
:102AD000DFED730A80EE201AB7EE000A31EE000A2D
:102AE00020EE000A6D48D0ED000A80EE801A6D4895
:102AF00080ED001A94ED000AB5EEC00AF1EE10FA6E
:102B00000DD194ED010AB5EEC00AF1EE10FA06D12E
:102B100094ED020AB5EEC00AF1EE10FA46D09FED30
:102B2000580AB0EE408A0020019002900390D4ED44
:102B3000000A60EEA00A94ED011AD4ED011A41EEEC
:102B4000210A94ED021AD4ED021A41EE210AB0EEE8
:102B5000600A00F0A9F8B0EE408A94ED000A20EE79
:102B6000080A8DED010A94ED010A20EE080A8DEDA8
:102B7000020A94ED020A20EE080A8DED030ADDED4B
:102B8000010AF1EE600AB0EE600AFFF7FBFEF0EE1C
:102B9000409A9DED031AF0EE410A9DED021AB0EE47
:102BA000410AFFF7FBFEB0EE40AA07E09FED340AB2
:102BB000F0EE409A9FED320AB0EE40AA95ED000A81
:102BC000B5EEC00AF1EE10FA0DD195ED010AB5EEA1
:102BD000C00AF1EE10FA06D195ED020AB5EEC00A70
:102BE000F1EE10FA3CD0B0EE690A00F06FF8B0EEEA
:102BF000408AB0EE690AFFF7E1FEB0EE40DAB0EECF
:102C00004A0A00F063F8F0EE40AAB0EE4A0AFFF775
:102C1000D5FEB0EE40BA28EE2A0AD5ED010A20EE24
:102C2000200AD5ED000A0DEE200A68EE0B0A95ED9C
:102C3000021A00EE810AB0EE40CA95ED010A20EEBC
:102C40000B0AD5ED020A0AEEE00AF0EE40CAF0EEF9
:102C50006C0AB0EE4C0AFFF7A1FEF0EE40BA03E0BA
:102C60009FED070AF0EE40BAB0EE4A1AF0EE690A9C
:102C7000B0EE6B0A30460EF0D7FF00BFE4E600006E
:102C800000000000C8050020CC05002035FA8E3C6D
:102C9000C1BFAD3B9DF8C5362F7C1C41D00500203F
:102CA000506CC24AD405002010B52DED028BB0EE59
:102CB000408AB0EE480A0EF0C3FCB7EE001AC1EE2F
:102CC000000AB0EE600ABDEC028B10BD10B52DED10
:102CD000028BB0EE408AB0EE480AFDF7D7FBBDECA0
:102CE000028B10BD2DE9F0412DED028B9AB0054607
:102CF000B0EE408A0E46174698460020179018906E
:102D000019901490159016904DB146B13FB1B8F19D
:102D1000000F04D0B5EEC08AF1EE10FA05D1002004
:102D20001AB0BDEC028BBDE8F08196ED000A8DED86
:102D3000170A96ED010A8DED180A96ED020A8DED3F
:102D4000190A97ED000A8DED140A97ED010A8DED31
:102D5000150A97ED020A8DED160A17AA14A928463E
:102D60000EF096FD402104A8FDF714FE002000900F
:102D7000019002900390002417A904A813F000FD0D
:102D800000BF30E004A800EB041090ED000AD5ED80
:102D9000000A20EE200A04A800EB0410D0ED010A7E
:102DA00095ED011A00EE810A04A800EB0410D0EDA5
:102DB000020A95ED021A00EE810A04A800EB041045
:102DC000D0ED030A95ED031A00EE810A20EE080A01
:102DD000F0EE000A80EE201A684600EB840080EDD9
:102DE000001A601CC4B2042CCCDB002410E005EBFC
:102DF000840090ED000A684600EB8400D0ED000AE4
:102E000030EE200A05EB840080ED000A601CC4B29D
:102E1000042CECDB284613F091F9012080E7000038
:102E200010B501221021024802F0D4F910BD0000B3
:102E30000000024010B500221021024802F0CAF939
:102E400010BD0000000002407047000010B50122D4
:102E50001146024802F0BEF910BD00000004024015
:102E600010B500220121024802F0B4F910BD0000A3
:102E70000004024010B543781B021BB204782343C0
:102E800000EE103AB8EEC01A1C4BD3ED001A21EE3A
:102E9000211A81ED001AC3781B021BB284782343E8
:102EA00000EE103AB8EEC01A144BD3ED001A21EE22
:102EB000211A81ED011A43791B021BB204792343C5
:102EC00000EE103AB8EEC01A0C4BD3ED001A21EE0A
:102ED000211A81ED021A037A1B04C47943EA042300
:102EE0008479234300EE903AB8EE601ADFED041ABD
:102EF00021EE211A82ED001A10BD00006C030020A3
:102F000000401C42704710B50446204612F0CEFB2C
:102F100010BD10B50446204610F0F2FB10BD0000B5
:102F20004278120212B203781A4300EE102AF8EE29
:102F3000C00A144A92ED001A60EE810AC1ED000A3F
:102F4000C278120212B283781A4300EE102AF8EE09
:102F5000C00A0C4A92ED001A60EE810AC1ED010A26
:102F60004279120212B203791A4300EE102AF8EEE7
:102F7000C00A044A92ED001A60EE810AC1ED020A0D
:102F8000704700007003002010B50024FFF75CFFBD
:102F9000FFF7B8FF0FF030F910B144F0800402E001
:102FA0000FF090F804430FF01FFB10B144F0400401
:102FB00002E00FF09FFA0443204610BD2DE9FC41CA
:102FC00005460E461746002000900190FFF732FF9D
:102FD000922000F0D1F806226946122000F0ACF8E9
:102FE000FFF71EFF9DF80100000200B29DF80010DF
:102FF00040EA010400EE104AB8EEC00A4C48D0ED99
:10300000000A20EE200A86ED000A9DF80300000267
:1030100000B29DF8021040EA010400EE104AB8EE3A
:10302000C00A4348D0ED000A20EE200A86ED010ACE
:103030009DF80500000200B29DF8041040EA01046A
:1030400000EE104AB8EEC00A3948D0ED000A20EE72
:10305000200A86ED020AFFF703FF082269460020D6
:1030600000F06AF8FFF7F2FE9DF800000F2838D153
:103070009DF80300000200B29DF8021040EA01042E
:1030800000EE104AB8EEC00A2A48D0ED000A20EE41
:10309000200A85ED000A9DF80500000200B29DF8A7
:1030A000041040EA010400EE104AB8EEC00A2148BC
:1030B000D0ED000A20EE200A85ED010A9DF80700F8
:1030C000000200B29DF8061040EA010400EE104A2A
:1030D000B8EEC00A1748D0ED000A20EE200A85EDB0
:1030E000020AFFF7A7FEA22000F046F80222694676
:1030F000222000F021F8FFF793FE9DF80000C000A9
:103100009DF8011040EA6114B4F5806F02DBA4F56C
:10311000006004B200EE104AF8EEC00AB4EE001AE5
:10312000B3EE070A00EE810A87ED000ABDE8FC81D4
:103130006C0300207003002070B506460C4615464F
:1031400046F0800000F018F806E0552000F014F872
:103150002070641C681EC5B2002DF6D170BD70B51C
:1031600004460D4644F0800000F006F8552000F0BB
:1031700003F8287070BD000001B582B04FF47A707A
:10318000012301AA02A90090024804F059FB9DF80E
:1031900004000EBD4C0F002010B502461378DB0072
:1031A000547843EA6410B0F5806F02DBA0F5006349
:1031B00018B200EE100AF8EEC00AB4EE001AB3EE30
:1031C000070A00EE810A81ED000A10BD70B50546C0
:1031D0000C462846FFF7D0FF2046FFF7CDFF70BD15
:1031E00000BFFEE70346042B15D007DC7BB1012BA3
:1031F0000ED0022B0DD0032B12D10BE0202B0BD0C5
:10320000212B0AD0222B09D0232B09D107E008E07B
:1032100007E006E005E004E003E002E001E000E092
:1032200000BF00BF002070470020704710B500228B
:10323000044905480BF09CFC044903480BF08AFC48
:10324000002010BD682800206014002068200020A5
:1032500070B504460D46214603480BF07BFC02483E
:103260000BF048FC002070BD6014002010B5034630
:103270000C460021084610BD10B5024801F0F2FBD3
:1032800010BD00005C0E002010B5024801F0EAFB02
:1032900010BD0000BC0E00201B48406800F000601C
:1032A00080B31A48406B00681949884205D94FF02D
:1032B000006017494C3908601CE01448406B0068F6
:1032C0001149B831884205D94FF000601049503992
:1032D00008600FE00D48406B00680B495831884288
:1032E00004D94FF000600849C86003E04FF0006067
:1032F0000549886005480068006840F4007003498B
:10330000096808607047000000600240B40D0020AA
:103310005864024010B5024801F0A4FB10BD000043
:10332000A013002010B5FE48C06C0068FD4988421B
:1033300076D9FC4854380068F949C96C0968FA4ADA
:10334000914201D1202169E0F549C96C0968F54A2B
:10335000483A914201D1202160E0F149C96C0968E5
:10336000F14A6032914201D1202157E0EC49C96C09
:103370000968EC4A1832914201D120214EE0E84917
:10338000C96C0968E84A1832914201D1C91445E074
:10339000E349C96C0968E34A303A914201D1C91442
:1033A0003CE0DF49C96C0968DF4A7832914201D1BB
:1033B000C91433E0DA49C96C0968DA4A30329142FB
:1033C00001D1C9142AE0D649C96C0968D64A3032FD
:1033D000914202D14FF4001120E0D149C96C096833
:1033E000D04A183A914202D14FF4001116E0CC496C
:1033F000C96C0968CC4A9032914202D14FF4001155
:103400000CE0C749C96C0968C64A4832914203D1E9
:103410004FF4001102E003E04FF00061084070E15A
:10342000BF48C06C0068C049A831884276D9BD4801
:1034300058380068BA49C96C0968BB4A914201D141
:10344000202169E0B649C96C0968B64A483A9142F8
:1034500001D1202160E0B249C96C0968B24A6032EA
:10346000914201D1202157E0AD49C96C0968AD4AAC
:103470001832914201D120214EE0A949C96C096856
:10348000A94A1832914201D1C91445E0A449C96C36
:103490000968A44A303A914201D1C9143CE0A049DC
:1034A000C96C0968A04A7832914201D1C91433E04D
:1034B0009B49C96C09689B4A3032914201D1C914B9
:1034C0002AE09749C96C0968974A3032914202D183
:1034D0004FF4001120E09249C96C0968914A183AEA
:1034E000914202D14FF4001116E08D49C96C096870
:1034F0008D4A9032914202D14FF400110CE088497C
:10350000C96C0968874A4832914203D14FF40011CF
:1035100002E003E04FF000610840F2E08048C06C38
:10352000006881494831884276D97F481038406820
:103530007B49C96C09687C4A914201D1202169E02C
:103540007749C96C0968774A483A914201D12021EC
:1035500060E07349C96C0968734A6032914201D1D5
:10356000202157E06E49C96C09686E4A18329142B1
:1035700001D120214EE06A49C96C09686A4A1832B3
:10358000914201D1C91445E06549C96C0968654A91
:10359000303A914201D1C9143CE06149C96C0968D3
:1035A000614A7832914201D1C91433E05C49C96C57
:1035B00009685C4A3032914201D1C9142AE0584965
:1035C000C96C0968584A3032914202D14FF4001157
:1035D00020E05349C96C0968524A183A914202D115
:1035E0004FF4001116E04E49C96C09684E4A9032FA
:1035F000914202D14FF400110CE04949C96C0968AD
:10360000484A4832914203D14FF4001102E003E0EE
:103610004FF00061084074E04348103800684049AA
:10362000C96C0968404A914201D1202168E03C49B7
:10363000C96C09683B4A483A914201D120215FE0B8
:103640003749C96C0968384A6032914201D120215A
:1036500056E03349C96C0968324A1832914201D1A7
:1036600020214DE02E49C96C09682F4A1832914239
:1036700001D1C91444E02A49C96C0968294A303A81
:10368000914201D1C9143BE02549C96C0968264A19
:103690007832914201D1C91432E02149C96C0968DC
:1036A000204A3032914201D1C91429E01C49C96C29
:1036B00009681D4A3032914202D14FF400111FE0D7
:1036C0001749C96C0968174A183A914202D14FF458
:1036D000001115E01249C96C0968134A90329142F1
:1036E00002D14FF400110BE00D49C96C09680D4A75
:1036F0004832914202D14FF4001101E04FF00061D5
:10370000084000286FD00648C06C00680549884210
:103710007BD90348C06C00680349884208D105E0A2
:103720004C0F00205864024010600240202068E0E6
:10373000FE48C06C0068FE49884201D1202060E04C
:10374000FA48C06C0068FB49884201D1202058E04B
:10375000F648C06C0068F6496031884201D12020EB
:103760004FE0F248C06C0068F2494839884201D104
:10377000C01446E0ED48C06C0068ED49183188423D
:1037800001D1C0143DE0E948C06C0068E949183136
:10379000884201D1C01434E0E448C06C0068E449B8
:1037A0007831884201D1C0142BE0E048C06C006839
:1037B000E0493039884202D14FF4001021E0DB4863
:1037C000C06C0068DA493031884202D14FF40010F1
:1037D00017E0D648C06C0068D6493031884204D121
:1037E0004FF400100DE0DFE10FE0D048C06C00683E
:1037F000CF499031884202D14FF4001001E04FF0E0
:103800000060CB49091F08606AE1C848C06C0068C5
:10381000C8494831884274D9C448C06C0068C54959
:103820006039884201D1202066E0C048C06C006841
:10383000BF49884201D120205EE0BC48C06C0068CE
:10384000BC49884201D1202056E0B848C06C0068CD
:10385000B7496031884201D120204DE0B348C06CA7
:103860000068B4494839884201D1C01444E0AF48E7
:10387000C06C0068AE491831884201D1C0143BE0E9
:10388000AA48C06C0068AB491831884201D1C01405
:1038900032E0A648C06C0068A5497831884201D161
:1038A000C01429E0A148C06C0068A24930398842A0
:1038B00002D14FF400101FE09C48C06C00689C4986
:1038C0003031884202D14FF4001015E09748C06CA7
:1038D000006898493031884202D14FF400100BE063
:1038E0009248C06C006892499031884202D14FF4EE
:1038F000001001E04FF000608D4908390860EFE0EA
:10390000FFE78A48C06C00688A491839884274D930
:103910008648C06C006887496039884201D1202000
:1039200066E08248C06C00688149884201D120204D
:103930005EE07E48C06C00687E49884201D120204C
:1039400056E07A48C06C006879496031884201D1FC
:1039500020204DE07548C06C00687649483988429F
:1039600001D1C01444E07148C06C0068704918313E
:10397000884201D1C0143BE06C48C06C00686D49BE
:103980001831884201D1C01432E06848C06C006828
:1039900067497831884201D1C01429E06348C06C7E
:1039A000006864493039884202D14FF400101FE0AA
:1039B0005E48C06C00685E493031884202D14FF4E5
:1039C000001015E05948C06C00685A4930318842EF
:1039D00002D14FF400100BE05448C06C0068544909
:1039E0009031884202D14FF4001001E04FF00060A6
:1039F00050497039C86073E0FFE74C48C06C0068FC
:103A00004C496039884201D1202066E04748C06CAB
:103A100000684749884201D120205EE04348C06CDD
:103A200000684449884201D1202056E03F48C06CDC
:103A300000683F496031884201D120204DE03B4879
:103A4000C06C00683B494839884201D1C01444E049
:103A50003648C06C006836491831884201D1C0141C
:103A60003BE03248C06C006832491831884201D1CD
:103A7000C01432E02D48C06C00682D49783188426E
:103A800001D1C01429E02948C06C006829493039A7
:103A9000884202D14FF400101FE02448C06C006837
:103AA00023493031884202D14FF4001015E01F48FD
:103AB000C06C00681F493031884202D14FF40010B9
:103AC0000BE01A48C06C006819499031884202D155
:103AD0004FF4001001E04FF0006016497039886023
:103AE0001548007800F0020078B11348007820F003
:103AF0000200114908700846007840F00400087080
:103B0000012211460D4801F065FB0D48007800F0D8
:103B10000200E0B10A48007820F00200084908706D
:103B20000846007840F0040008700BE04C0F0020BD
:103B3000106402407060024019020020000402403C
:103B40001A02002001221021184801F043FB1848F6
:103B5000007800F0020078B11548007820F00200EB
:103B6000134908700846007840F0040008700122EC
:103B700010210E4801F02EFB11F034F80D480078AA
:103B800000F0040080B10B48007820F004000949DF
:103B900008700846007840F0080008700648006881
:103BA00040F001000449086010BD00000000024020
:103BB0001B02002019020020103C014010B50248F1
:103BC00000F050FF10BD00000014002010B50248A6
:103BD00000F048FF10BD0000E012002001680A4B11
:103BE000CAB2103AA3FB02321209084B9B5CC365B0
:103BF000032A04D96FF30901091D816502E06FF3FF
:103C000009018165806D7047ABAAAAAA62BB010851
:103C1000014600208A6A8B69002B0FD0B3F5005F44
:103C20001DD08AB3012A30D0022A2ED0032A04D113
:103C3000C96A11F0807F00D0012070471AB1012AB3
:103C400007D0022AF9D1C96A11F0807FF5D001208E
:103C50007047C96AB1F1C07FFAD1012070475AB1EB
:103C6000012A0BD0022A07D0032AF7D1C96AB1F181
:103C7000C07FF3D10120704701207047C96A11F05D
:103C8000807FFAD001207047FFE70120704770471E
:103C900010B5012001F07CF910BD10B5082001F02D
:103CA00077F910BD10B5102001F072F910BD10B5F4
:103CB000202001F06DF910BD0FB5D2ED004ACDED19
:103CC000004AD2ED014AF1EE644ACDED014AD2ED4F
:103CD000024AF1EE644ACDED024AD2ED034AF1EE1A
:103CE000644ACDED034ADDED004A64EEA44A9DED41
:103CF000015ADDED015A45EE254A9DED025ADDEDF2
:103D0000025A45EE654A9DED035ADDED035A45EE34
:103D1000654AB0EE640ADDED014A9DED025A64EE9B
:103D2000854A9DED005ADDED035A45EE654AB0EE39
:103D3000005A64EE854AF0EE640ADDED014A9DED1D
:103D4000035A64EE854A9DED005ADDED025A45EEB8
:103D5000254AB0EE005A64EE854AB0EE641ADDEDF5
:103D6000014A9DED025A64EE854A9DED005ADDED53
:103D7000035A45EE254AB0EE005A64EE854AF0EE4D
:103D8000641ADDED004A64EEA44A9DED015ADDEDB2
:103D9000015A45EE654A9DED025ADDED025A45EEA7
:103DA000254A9DED035ADDED035A45EE654AB0EE16
:103DB000642ADDED024A9DED035A64EE854A9DEDCD
:103DC000005ADDED015A45EE654AB0EE005A64EE48
:103DD000854AF0EE642ADDED014A9DED035A64EE5A
:103DE000854A9DED005ADDED025A45EE654AB0EE7A
:103DF000005A64EE854AB0EE643ADDED024A9DED6C
:103E0000035A64EE854A9DED005ADDED015A45EEF8
:103E1000254AB0EE005A64EE854AF0EE643ADDEDD4
:103E2000004A64EEA44A9DED015ADDED015A45EECB
:103E3000654A9DED025ADDED025A45EE654A9DED5B
:103E4000035ADDED035A45EE254AB0EE644AD0ED43
:103E5000004A64EE804A90ED015A40EE854A90EDAA
:103E6000025A41EE054AC1ED004AD0ED004A64EE27
:103E7000A14A90ED015A42EE054A90ED025A42EEF7
:103E8000854AC1ED014AD0ED004A64EE834A90EDC7
:103E9000015A43EE854A90ED025A44EE054AC1EDBF
:103EA000024A0FBD704700000022002905D00129F9
:103EB0001AD002291BD04FF440720E490B6823F42C
:103EC00040730B600B681A430A600A6822F0F8021C
:103ED0000A600A68022343EAC000104308600868C9
:103EE00040F48030086070474FF48072E5E74FF48B
:103EF0000072E2E7103C02401448016811F4007FB0
:103F00000FD0016821F400710160016841F4006183
:103F10000160016821F400610160016841F40071F1
:103F20000160016811F4806F0FD0016821F4806195
:103F30000160016841F480510160016821F4805101
:103F40000160016841F4806101607047003C0240FB
:103F500008490A6822F440720A600A6842F00402C2
:103F60000A600A684FF4803343EA00201043086077
:103F700070470000103C0240064A136823F4407367
:103F8000136013681360136843F00103136001703A
:103F900070470000103C02400B49D1F800C02CF4DF
:103FA000407CC1F800C0D1F800C04CF4407CC1F89E
:103FB00000C0D1F800C04CF0010CC1F800C0026094
:103FC000BFF36F8F43607047103C0240074A13688D
:103FD00023F440731360136843F480731360136811
:103FE00043F001031360018070470000103C024061
:103FF000074A136823F440731360136843F4007393
:104000001360136843F00103136001607047000000
:10401000103C02401A49086810F0100F194805D0EA
:10402000C26942F01002C26110220A600A6812F0EE
:10403000200F05D0C26942F00802C26120220A6046
:104040000A6812F0400F05D0C26942F00402C26152
:1040500040220A600A6812F0800F05D0C26942F05F
:104060000202C26180220A600A6812F0020F05D0C3
:10407000C26942F02002C26102200860704700005D
:104080000C3C02402849002070B504461449002029
:10409000C86101F0A7F80646124D286810F4803F69
:1040A0000ED0B4F1FF3F07D024B101F09BF8801B84
:1040B000A04201D9032070BD286810F4803FF0D1E0
:1040C000286810F0010F01D001202860286810F046
:1040D000F20F03D0FFF79EFF012070BD002070BDDE
:1040E000284900200C3C024070B50A480468001DB5
:1040F0000568001D0668344454B10822064920466C
:1041000005F002FF042204491031284605F0FCFEA8
:1041100070BD0000107AFF1F7200002038B44FF00D
:10412000000CCDF800C090F83C20012A1BD00122E1
:1041300080F83C200A680724092A17D90368DD683B
:104140000A3A02EB420204FA02F225EA0202DA60BB
:104150000A788B680A3A02EB420293400268D468FC
:104160002343D36014E038BC0220704703681D6904
:1041700002EB420204FA02F225EA02021A610A780C
:104180008B6802EB42029340026814692343136177
:104190004A681F24072A15D203685D6B521E02EB82
:1041A000820204FA02F225EA02025A630A8893B2F2
:1041B0000A79521E02EB820293400268546B234339
:1041C00053632CE00D2A15D203681D6BD21F02EB3E
:1041D000820204FA02F225EA02021A630A8893B202
:1041E0000A79D21F02EB820293400268146B2343C8
:1041F000136314E00368DD6A0D3A02EB820204FAED
:1042000002F225EA0202DA620A8893B20A790D3ACA
:1042100002EB820293400268D46A2343D362184AB5
:10422000184B04689C4206D10C68122C03D15468C8
:1042300044F48004546004689C421CD10B68102B29
:1042400001D0112B17D1536843F400035360096860
:10425000102910D10C490D4A0968B1FBF2F101EBAC
:10426000810149000091009929B10099491E0091EE
:1042700000990029F9D180F83CC038BC0020704773
:104280000023014000200140A000002040420F0018
:104290000068C06C704770B504460025002C03D040
:1042A000206C002610B107E0012070BD204600F010
:1042B0001DF8666484F83C60206C10F0100F04D088
:1042C000012584F83C60284670BD206C20F488509D
:1042D00040F0020020642046FDF748FF6664206C31
:1042E00020F0020040F001002064EAE710B586B03B
:1042F0000446142101A8FCF74DFB2349206888429D
:104300000FD100BF002000902048006840F480706A
:104310001E4908600846006800F48070009000BFE5
:104320002FE01B49206888422BD100BF002000905D
:104330001648006840F48060144908600846006828
:1043400000F48060009000BF00BF00BF002000901C
:104350000E481438006840F020000C4914390860F9
:104360000846006800F02000009000BF00BF08155C
:104370000190032002900020039001A9054800F05D
:1043800013FE06B010BD000000200140443802407A
:1043900000220140001402402DE9F04104460D4680
:1043A000206881684FF0000711F4806F0CD080689E
:1043B00010F4807F08D0206C40F02000206484F846
:1043C0003C700120BDE8F08100F00CFF064620683B
:1043D000006810F0020F12D1B5F1FF3F0AD025B1ED
:1043E00000F000FF801BA84204D92068006810F08C
:1043F000020F12D02068006810F0020FECD0216884
:104400006FF012000860206C40F400702064206897
:10441000816811F0405F09D01EE0206C40F004007C
:10442000206484F83C700320BDE8F081217E99B9B6
:10443000C16A11F4700F03D0806810F4806F0BD143
:10444000206C20F480702064206C10F4805F03D115
:10445000206C40F0010020640020BDE8F0810000E5
:1044600081B00022009290F83C10012908D001216F
:1044700080F83C1001688B6813F0010F03D016E040
:10448000022001B070478B6843F001038B6039490B
:10449000394B0968B1FBF3F101EB4101009100993F
:1044A00029B10099491E009100990029F9D10168AC
:1044B0008B6813F0010F52D0036C23F0010323F437
:1044C000C06343F4807303644B6813F4806F05D0BA
:1044D000036C23F4005343F480530364036C13F41C
:1044E000805F04D0436C23F00603436400E0426421
:1044F00080F83C20214A6FF022030B60516811F0D4
:104500001F0F1F4907D00068884230D1816811F021
:10451000405F1FD02BE00068884212D0194A9042B9
:1045200004D1D1F8042312F01F0F0AD0A0F1804269
:10453000B2F591321BD1D1F8041301F01F011029FB
:1045400015D2816811F0405F11D1816841F080413E
:1045500081600CE0816841F08041816007E0016C7E
:1045600041F010010164416C41F0010141640020FF
:1045700001B07047A000002040420F00002301401E
:10458000002001400021014090F82020012A07D09E
:10459000022A05D0416A41F480214162012070471E
:1045A00000684269114341610020704790F8202063
:1045B000012A07D0022A05D0416A41F480214162D4
:1045C000012070474248D0F8002242F00102C0F8B2
:1045D0000022D0F8002222F47C52C0F80022D0F849
:1045E00000224B6A42EA0322C0F800220A7D01231E
:1045F00002F01F0203FA02F2D0F81C329343C0F813
:104600001C32CB69D3B9D0F80C329343C0F80C32CA
:10461000B1F80CC04B686CF31F43D1F814C000EB29
:10462000CC0CCCF84032B1F808C00B686CF31F43D7
:10463000D1F814C000EBCC0CCCF84432CB69012B80
:104640001AD1D0F80C321343C0F80C32B1F800C0C4
:104650004B686CF31F43D1F814C000EBCC0CCCF8C2
:104660004032B1F808C0CB686CF31F43D1F814C0D6
:1046700000EBCC0CCCF844328B697BB1D0F804321F
:104680001343C0F804320B6973B1D0F814321343EA
:10469000C0F81432096A01290CD010E0D0F80432B5
:1046A0009343C0F80432EEE7D0F814329343C0F8D5
:1046B0001432EFE7D0F81C121143C0F81C12D0F8E6
:1046C000001221F00101C0F8001200207047000024
:1046D0000064004070B50446002C03D094F820001C
:1046E00010B104E0012070BD204600F0A7F820685A
:1046F000016841F00101016000F074FD0546206889
:1047000040684FF0050610F0010F11D100F06AFD6E
:10471000401B0A2807D9606A40F40030606284F8C0
:104720002060012070BD2068406810F0010FEDD0BE
:104730002068016821F00201016000F053FD054688
:104740002068406810F0020F11D000F04BFD401BB4
:104750000A2807D9606A40F40030606284F820605B
:10476000012070BD2068406810F0020FEDD1207E5E
:1047700001283FD02068016821F080010160607E3F
:1047800001283DD02068016821F040010160A07E31
:1047900001283BD02068016821F020010160E07E03
:1047A000012839D02068016841F010010160207FA4
:1047B000012837D02068016821F008010160607F7E
:1047C000012835D02068016821F004010160E1680A
:1047D000A068626908432169114308436168491E62
:1047E00008432168C86100206062012084F820002D
:1047F000002070BD2068016841F080010160BEE7C3
:104800002068016841F040010160C0E7206801684C
:1048100041F020010160C2E72068016821F0100129
:104820000160C4E72068016841F008010160C6E743
:104830002068016841F004010160C8E710B586B046
:104840000446142101A8FCF7A5F8464920688842CF
:1048500039D145480068401C434908600846006853
:1048600001280FD100BF002000904048006840F0B0
:1048700000703E4908600846006800F00070009033
:1048800000BF00BF00BF002000903848103800680B
:1048900040F008003549103908600846006800F00B
:1048A0000800009000BF00BF03200190022002908A
:1048B00000200390032004900920059001A92C48B2
:1048C00000F072FB4CE02B492068884248D100BFC1
:1048D000002000902548006840F08060234908606F
:1048E0000846006800F08060009000BF00BF1E48CE
:1048F0000068401C1C4908600846006801280FD168
:1049000000BF002000901948006840F0007017496F
:1049100008600846006800F00070009000BF00BF0B
:1049200000BF0020009011481038006840F00200DD
:104930000E49103908600846006800F00200009037
:1049400000BF00BF60200190022002900020039071
:10495000032004900920059001A9074800F024FBDA
:1049600006B010BD00640040300000204038024016
:10497000000C0240006800400004024070B504468C
:1049800094F82000012805D0606A40F4002060629D
:10499000012070BD022084F820002068016821F009
:1049A0000101016000F01EFC05462068406810F01F
:1049B000010F12D000F016FC401B0A2808D9606ACB
:1049C00040F400306062052084F82000012070BDB2
:1049D0002068406810F0010FECD10020606270BDCB
:1049E00010B50446002C02D0607910B106E0012019
:1049F00010BD00202071204600F004F801206071F5
:104A0000002010BD08B50A4A016891420FD100BFCD
:104A1000002100910749096841F48051054A11605D
:104A20001146096801F48051009100BF00BF08BD24
:104A3000003002403038024090F83510022903D08F
:104A40008021416501207047052180F835100068FC
:104A5000016821F0010101600020704790F83500E5
:104A6000704700002DE9F84304464FF00008CDF8E8
:104A7000008076484FF416510068B0FBF1F7A56D41
:104A80002E6894F85C00082101FA00F0304211D041
:104A90002068026812F0040F0CD0026822F00402B1
:104AA000026094F85C0001FA00F0A860606D40F0CC
:104AB0000100606594F85C004FF0010909FA00F00C
:104AC000304209D02168496911F0800F04D0A860F4
:104AD000606D40F00200606594F85C10042088402E
:104AE000304209D02168096811F0020F04D0A86093
:104AF000606D40F00400606594F85C101020884000
:104B0000304224D02168096811F0080F1FD0A86036
:104B10002068016811F4802F0DD0006810F4002F78
:104B200004D0A16C99B12046884710E0216C71B186
:104B3000204688470BE0016811F4807F03D10168AB
:104B400021F008010160216C09B12046884794F8E2
:104B50005C1020208840304251D02168096811F053
:104B6000100F4CD0A86094F8350005280DD02068AF
:104B7000016811F4802F32D0006810F4002F29D082
:104B8000E16B59B32046884739E02068016821F07D
:104B9000160101602068416921F080014161206CAB
:104BA00008B9A06C20B12068016821F008010160FB
:104BB00094F85C003F2101FA00F0A86084F8359079
:104BC00084F83480216D00293ED001B02046BDE834
:104BD000F0430847616C09B1204688470FE001683F
:104BE00011F4807F07D1016821F01001016084F881
:104BF000359084F83480E16B09B120468847606DB8
:104C0000002821D0606D10F0010F15D0052084F828
:104C100035002068016821F0010101600098401C06
:104C20000090B84204D82068006810F0010FF5D158
:104C300084F8359084F83480E16C002904D001B008
:104C40002046BDE8F0430847BDE8F883A0000020F7
:104C50002DE9F041044600F0C5FA0546DCB102201A
:104C600084F83500002684F834602068016821F05B
:104C7000010101602068006810F0010F13D000F0FE
:104C8000B1FA401B052809D920206065032084F86B
:104C90003500BDE8F0810120BDE8F08120680068A2
:104CA00010F0010FEBD121680868234A1040A36877
:104CB0006268D4F810C01A43E36843EA0C031A434D
:104CC00063691A43A3691A43E3691A43236A1A43BF
:104CD0001043626A042A03D1236BE26A1A43104329
:104CE00008602068406920F00701606A40EA010519
:104CF000012704280ED1A06A0543E06A50B120467E
:104D0000FEF786FF30B14020606584F835700120E1
:104D1000BDE8F081206845612046FEF75FFF94F80A
:104D20005C103F2202FA01F18160666584F83570FB
:104D30000020BDE8F08100003F8010F070B504460F
:104D400000F050FA0546B4F1FF3F02D00448007865
:104D5000044400F047FA401BA042FAD370BD0000A3
:104D6000B00400202DE9F04104460F46DFF898809A
:104D700098F8180001280AD0012088F818004CF291
:104D80005030FFF781F90246100003D035E00220D1
:104D9000BDE8F0814FF0FF30386020681B4E0128DD
:104DA00015D0A568E0682844A84224D9217C28466B
:104DB000FFF77AF84CF25030FFF766F90246306898
:104DC00020F0FA00306010000FD03D6013E0207C2E
:104DD0006168FFF7BDF84CF25030FFF755F9024615
:104DE000306820F00400306005E06D1CA168E068C8
:104DF0000844A842DAD8FFF77FF8002088F81800A6
:104E00001046BDE8F081000028490020103C024017
:104E10000348016841F00041016000207047000034
:104E2000103C02402DE9F0410646884614461D46D6
:104E30001A4F387E012807D0012038764CF25030C6
:104E4000FFF722F918B115E00220BDE8F081AEB1FC
:104E5000012E18D0022E1BD022462B464046FFF7CB
:104E60009BF84CF25030FFF70FF90D490A6822F019
:104E700001020A6000213976BDE8F081E1B24046C6
:104E8000FFF77AF8EDE7A1B24046FFF79FF8E8E7B1
:104E900021464046FFF7ACF8E3E700002849002030
:104EA000103C0240002008490A6812F0004F09D067
:104EB000074A064B1360074B1360096811F0004F57
:104EC00000D0012070470000103C024023016745DC
:104ED000043C0240AB89EFCD10B50446102C14D130
:104EE00009200EF049FC2248007840F001002049DA
:104EF00008702048007840F001001E4908701E48E4
:104F00000078A0B30FF06EFE31E0202C0ED1082007
:104F10000EF032FC1948007840F001001749087083
:104F20001548007818B30FF05DFE20E0082C09D179
:104F30000A200EF021FC1248007840F001001049D0
:104F4000087014E0012C12D112F076FD01280ED069
:104F50000C490D48006812F05DF80A48006830B14D
:104F600020070A490860BFF34F8FBFF36F8F10BD52
:104F70001A0200201B0200201D020020190200203E
:104F80001C02002090020020F401002004ED00E04B
:104F900010B504490A68024202D00860FFF79CFF7E
:104FA00010BD0000143C01402DE9F84F0022DFF84D
:104FB00018A2DFF810924FF0010E03274FF00F08F0
:104FC000AAF1040B0EFA02FC0B6803EA0C0363451A
:104FD0007DD10C7904F00304012C01D0022C14D1F2
:104FE0008568540007FA04F6B543CE6806FA04F45F
:104FF0002C438460446824EA0C0C0C79C4F300143C
:10500000944044EA0C0CC0F804C0D1F804C037EA5C
:105010000C0C0CD0C4684FEA420C07FA0CF5AC43F8
:105020008D6805FA0CFC4CEA040CC0F80CC091F831
:1050300004C00CF0030CBCF1020F12D14FEAD20CE9
:1050400000EB8C04256A4FEA427C4FEADC6C08FADC
:105050000CF6B5430E6906FA0CFC4CEA050CC4F8D4
:1050600020C004684FEA420C07FA0CF5AC430D79F6
:1050700005F0030505FA0CFC4CEA040CC0F800C06E
:10508000D1F804C01CF4403F7DD0D9F800C04CF4E6
:10509000804CC9F800C0D9F800C00CF4804CCDF8A1
:1050A00000C022F0030C0CF1804505F59835D5F8C9
:1050B00008C89407240F08FA04F62CEA0606A0F1A3
:1050C000804CBCF5003C64D0A0F1804C00E05AE07C
:1050D000BCF5013C60D0A0F1804CBCF5023C5ED038
:1050E000A0F1804CBCF5033C5CD0A0F1804CBCF539
:1050F000043C5AD0A0F1804CBCF5053C58D0A0F13E
:10510000804CBCF5063C56D0A0F1804CBCF5073C69
:1051100054D04FF0080C0CFA04FC4CEA060CC5F80D
:1051200008C8DAF800C02CEA030C4C6814F4801F9D
:1051300001D04CEA030CCAF800C0244CD4F800C0DB
:105140002CEA030C4D6815F4001F01D04CEA030C47
:10515000C4F800C0DBF800C02CEA030C4C6814F45F
:10516000003F01D04CEA030CCBF800C0184CD4F837
:1051700000C02CEA030C4D6815F4803F01D04CEAC6
:10518000030CC4F800C0521C102AFFF41BAFBDE88A
:10519000F88F4FF0000CBEE74FF0010CBBE74FF06B
:1051A000020CB8E74FF0030CB5E74FF0040CB2E780
:1051B0004FF0050CAFE74FF0060CACE74FF0070CD3
:1051C000A9E7000044380240083C01400C3C014083
:1051D000003C0140002A01D08161704709048161CF
:1051E000704700000148806870470000B00400204C
:1051F000704770472DE9F041044621684E694F68B9
:10520000002594F83E0016F4807F06D017F4807FC6
:1052100003D001256FF480724A6116F4007F08D034
:1052200017F4807F05D045F0020522686FF4007105
:10523000516116F4806F25D017F4807F22D0628DE3
:1052400094F83D10236B202808D13AB9212910D0B9
:1052500029290ED0282901D1212B0AD022686FF4E8
:105260008061516145F00405102806D0402804D023
:1052700008E0204604F078F904E02068016841F471
:105280000071016016F4006F08D017F4807F05D01C
:1052900045F0080521686FF400604861002D07D0D3
:1052A000206C284320642046BDE8F04103F054BB45
:1052B000BDE8F0812DE9F04104460021D4F800C09A
:1052C000DCF80420E56A94F83E3094F83D00102B99
:1052D00007D0402B05D0236C002B7BD0DCF814309A
:1052E0007CE0DCF81860DCF8141011F0010F05D137
:1052F000B5F52A0F7ED0B5F12A4F7BD011F0010F02
:105300000AD012F4007F07D0204603F0B1FA2046FD
:10531000BDE8F04103F0E3BE11F0080F07D012F42E
:10532000007F04D02046BDE8F04103F0DABD11F063
:10533000020F07D012F4007F04D02046BDE8F041F0
:1053400003F0E4BD16F0040F26D0DCF804C01CF412
:10535000006F4FD111F0800F05D012F4806F02D092
:1053600011F0040F0ED011F0040F43D012F4007F9F
:1053700040D021280BD0402B3CD12046BDE8F04145
:1053800003F0FDBE2046BDE8F04103F048BD2046D5
:10539000BDE8F04103F0F8BCDCF8040010F4006F45
:1053A0006ED111F0400F05D012F4806F02D011F0D1
:1053B000040F0AD011F0040F62D012F4007F5FD006
:1053C0002046BDE8F04103F096BB2046BDE8F04121
:1053D00003F011BCDCF81810DCF8143013F0020FE5
:1053E0000DD012F4007F0AD0206C08B1DCF8181040
:1053F000204600E044E0BDE8F04104F08DB813F031
:10540000100F07D012F4007F04D02046BDE8F04111
:1054100004F0ECB8212815D0292813D013F0400F40
:1054200005D012F4806F02D013F0040F23D013F0D4
:10543000040F25D012F4007F22D02046BDE8F041B1
:1054400004F00AB813F0800F05D012F4806F02D078
:1054500013F0040F0AD013F0040F11D012F4007FE0
:105460000ED02046BDE8F04104F026B82046BDE845
:10547000F04104F02FB82046BDE8F04103F0FABF38
:10548000BDE8F0817047000070B50446002C04D0E0
:1054900094F83D00002510B106E0012070BD84F8AD
:1054A0003C50204600F01AFC242084F83D0020687F
:1054B000016821F0010101602068016841F40041A8
:1054C00001602068016821F40041016001F056FD8F
:1054D000544B6168994203D85349884203D304E08E
:1054E0005249884201D2012070BD5149B0FBF1F10F
:1054F0002268D2F804C02CF03F0C4CEA010CC2F830
:1055000004C062689A4201D84A1C07E04FF49672C0
:1055100051434FF47A72B1FBF2F14A1C2168D1F881
:1055200020C02CF03F0C42EA0C020A6261689942EA
:1055300010D84900401EB0FBF1F2521CC2F30B021E
:10554000042A01D2042026E0B0FBF1F0401CC0F395
:105550000B0020E0A268002A50D001EBC10303EB4E
:105560000113A0F1010CBCFBF3F35B1C43F480437B
:105570001B051B0D4AD0002A4AD001EBC10202EBE9
:105580000111401EB0FBF1F0401CC0F30B0040F4D1
:10559000804040F400402168CA6922F0FF0222F4F2
:1055A0004F421043C861216AE069014320680268E4
:1055B00022F0C00211430160E168206901432068C4
:1055C000826822F0FF0222F4034211438160A16944
:1055D000606901432068C26822F0FF021143C16084
:1055E0002068016841F0010101602564202084F8F1
:1055F0003D00256384F83E50002070BD01EB41035F
:10560000A0F1010CBCFBF3F35B1CB1E70120C2E786
:1056100001EB4101401EB0FBF1F0401CC0F30B0058
:10562000B7E70000A086010080841E0000093D004D
:1056300040420F00704770477047000038B40024A4
:10564000009490F83DC0BCF1200F02D038BC02207D
:105650007047DFF8E8C046F2A815DCF800C0BCFBD4
:10566000F5FC0CEBCC0505EB0C1CCDF800C0DDF80F
:1056700000C0ACF1010CCDF800C0DDF800C0BCF1F9
:10568000000F17D0D0F800C0DCF818C01CF0020FD3
:10569000EDD190F83CC0BCF1010F1AD04FF0010CD5
:1056A00080F83CC0D0F800C0DCF8005015F0010FC5
:1056B00012D017E00463202180F83D1080F83E40AE
:1056C000016C41F02001016480F83C4038BC0120AD
:1056D000704738BC02207047DCF8005045F00105E7
:1056E000CCF80050D0F800C0DCF8005025F400657C
:1056F000CCF800504FF0220C80F83DC04FF0100C59
:1057000080F83EC0046442624385428D02850C4AA3
:10571000C262416480F83C4001684A6842F4E06239
:105720004A6001680A6842F480620A6000680168A1
:1057300041F48071016038BC00207047A000002057
:105740000000FFFF2DE9F84F04468A46904699462F
:105750000A9FFFF747FD064694F83D00202802D037
:105760000220BDE8F88F192301224C4920460096FB
:1057700004F098F810B10220BDE8F88F94F83C00CE
:10578000012808D0012084F83C002068016811F04D
:10579000010F03D006E00220BDE8F88F016841F058
:1057A000010101602068016821F40061016021208D
:1057B00084F83D00102084F83E0000252564C4F8DC
:1057C0002480A4F82A90608D20853548E062334615
:1057D0003A465146204603F07DFA10B10120BDE85B
:1057E000F88F2068416980690090208D002846D09C
:1057F00032463946204604F075F950B1206C042831
:1058000004D12068016841F4007101600120BDE805
:10581000F88F606A216800780861606A00F1010C05
:10582000C4F824C0608D401E6085208D401E80B26B
:1058300020852268516911F0040F0CD058B19CF8F2
:1058400000001061606A401C6062608D401E6085CF
:10585000208D401E208532463946204603F0F4FF55
:1058600050B1206C042804D12068016841F4007113
:1058700001600120BDE8F88F208D0028B8D1206894
:10588000016841F400710160202084F83D0084F833
:105890003E5084F83C500020BDE8F88F0200100014
:1058A0000000FFFF704770472DE9FF4F83B00446AB
:1058B0008A469346DDF84490DDF84080129EFFF75B
:1058C00091FC054694F83D00202803D007B0022043
:1058D000BDE8F08F19230122A0492046009503F06E
:1058E000E1FF18B107B00220BDE8F08F94F83C004A
:1058F000012808D0012084F83C002068016811F0DC
:10590000010F04D007E007B00220BDE8F08F016866
:1059100041F0010101602068016821F4006101602B
:10592000222084F83D00402084F83E0000272764B0
:10593000C4F82480A4F82A90608D20858848E0620D
:10594000019500965A4651462046069B03F072FC8C
:1059500018B107B00120BDE8F08F208D10B30128E9
:1059600029D0022835D02068416980690290208DB5
:10597000002800F0E880DFF8EC81208D032800F299
:10598000B780012834D002284AD03346002241464D
:105990002046009503F086FF00286CD007B0012058
:1059A000BDE8F08F2068416981690291016841F486
:1059B00000710160DBE72068016821F4806101600B
:1059C0002068416981690291016841F400710160B8
:1059D000CDE72068016821F48061016020680168DA
:1059E00041F4006101602068416980690290BEE76E
:1059F0002A463146204604F016F818B107B00120B7
:105A0000BDE8F08F20680069616A0870606A401C18
:105A10006062208D401E2085608D401E60858EE076
:105A20003346002241462046009503F03BFF18B163
:105A300007B00120BDE8F08F2068016841F40071D3
:105A4000016020680069616A0870606A401C6062D9
:105A5000218D491E2185618D491E61852168096955
:105A60000170606A401C6062208D401E2085608D40
:105A7000401E608563E02068016821F48061016058
:105A800020680069616A0870606A401C6062208D4D
:105A9000401E2085608D401E6085334600224146B1
:105AA0002046009503F0FEFE18B107B00120BDE8C6
:105AB000F08F2068016841F400710160206800697E
:105AC000616A0870606A401C6062218D491E2185F0
:105AD000618D491E6185216809690170606A401CF9
